{
  "contractName": "PizzaCoin",
  "abi": [
    {
      "constant": true,
      "inputs": [],
      "name": "name",
      "outputs": [
        {
          "name": "",
          "type": "string"
        }
      ],
      "payable": false,
      "stateMutability": "view",
      "type": "function"
    },
    {
      "constant": true,
      "inputs": [],
      "name": "decimals",
      "outputs": [
        {
          "name": "",
          "type": "uint8"
        }
      ],
      "payable": false,
      "stateMutability": "view",
      "type": "function"
    },
    {
      "constant": true,
      "inputs": [],
      "name": "owner",
      "outputs": [
        {
          "name": "",
          "type": "address"
        }
      ],
      "payable": false,
      "stateMutability": "view",
      "type": "function"
    },
    {
      "constant": true,
      "inputs": [],
      "name": "symbol",
      "outputs": [
        {
          "name": "",
          "type": "string"
        }
      ],
      "payable": false,
      "stateMutability": "view",
      "type": "function"
    },
    {
      "inputs": [
        {
          "name": "_ownerName",
          "type": "string"
        },
        {
          "name": "_voterInitialTokens",
          "type": "uint256"
        }
      ],
      "payable": false,
      "stateMutability": "nonpayable",
      "type": "constructor"
    },
    {
      "payable": true,
      "stateMutability": "payable",
      "type": "fallback"
    },
    {
      "constant": false,
      "inputs": [
        {
          "name": "_staffName",
          "type": "string"
        }
      ],
      "name": "registerStaff",
      "outputs": [
        {
          "name": "success",
          "type": "bool"
        }
      ],
      "payable": false,
      "stateMutability": "nonpayable",
      "type": "function"
    },
    {
      "constant": false,
      "inputs": [
        {
          "name": "_teamName",
          "type": "string"
        },
        {
          "name": "_creatorName",
          "type": "string"
        }
      ],
      "name": "createTeam",
      "outputs": [
        {
          "name": "success",
          "type": "bool"
        }
      ],
      "payable": false,
      "stateMutability": "nonpayable",
      "type": "function"
    }
  ],
  "bytecode": "0x60806040523480156200001157600080fd5b5060405162001502380380620015028339810180604052810190808051820192919060200180519060200190929190505050336000806101000a81548173ffffffffffffffffffffffffffffffffffffffff021916908373ffffffffffffffffffffffffffffffffffffffff1602179055506040805190810160405280600381526020017f505a43000000000000000000000000000000000000000000000000000000000081525060019080519060200190620000d0929190620002ef565b506040805190810160405280600a81526020017f50697a7a6120436f696e00000000000000000000000000000000000000000000815250600290805190602001906200011e929190620002ef565b506000600360006101000a81548160ff021916908360ff16021790555080600a819055506000809054906101000a900473ffffffffffffffffffffffffffffffffffffffff16600480805490508154811015156200017857fe5b9060005260206000200160006101000a81548173ffffffffffffffffffffffffffffffffffffffff021916908373ffffffffffffffffffffffffffffffffffffffff16021790555060806040519081016040528060011515815260200183815260200182815260200160006040519080825280602002602001820160405280156200021857816020015b6060815260200190600190039081620002025790505b50815250600560008060009054906101000a900473ffffffffffffffffffffffffffffffffffffffff1673ffffffffffffffffffffffffffffffffffffffff1673ffffffffffffffffffffffffffffffffffffffff16815260200190815260200160002060008201518160000160006101000a81548160ff0219169083151502179055506020820151816001019080519060200190620002ba92919062000376565b50604082015181600201556060820151816003019080519060200190620002e3929190620003fd565b50905050505062000509565b828054600181600116156101000203166002900490600052602060002090601f016020900481019282601f106200033257805160ff191683800117855562000363565b8280016001018555821562000363579182015b828111156200036257825182559160200191906001019062000345565b5b50905062000372919062000464565b5090565b828054600181600116156101000203166002900490600052602060002090601f016020900481019282601f10620003b957805160ff1916838001178555620003ea565b82800160010185558215620003ea579182015b82811115620003e9578251825591602001919060010190620003cc565b5b509050620003f9919062000464565b5090565b82805482825590600052602060002090810192821562000451579160200282015b82811115620004505782518290805190602001906200043f92919062000376565b50916020019190600101906200041e565b5b5090506200046091906200048c565b5090565b6200048991905b80821115620004855760008160009055506001016200046b565b5090565b90565b620004ba91905b80821115620004b65760008181620004ac9190620004bd565b5060010162000493565b5090565b90565b50805460018160011615610100020316600290046000825580601f10620004e5575062000506565b601f01602090049060005260206000209081019062000505919062000464565b5b50565b610fe980620005196000396000f300608060405260043610610078576000357c0100000000000000000000000000000000000000000000000000000000900463ffffffff16806301a682c11461007d57806306fdde0314610144578063313ce567146101d45780638da5cb5b146102055780638f44fc151461025c57806395d89b41146102dd575b600080fd5b34801561008957600080fd5b5061012a600480360381019080803590602001908201803590602001908080601f0160208091040260200160405190810160405280939291908181526020018383808284378201915050505050509192919290803590602001908201803590602001908080601f016020809104026020016040519081016040528093929190818152602001838380828437820191505050505050919291929050505061036d565b604051808215151515815260200191505060405180910390f35b34801561015057600080fd5b50610159610939565b6040518080602001828103825283818151815260200191508051906020019080838360005b8381101561019957808201518184015260208101905061017e565b50505050905090810190601f1680156101c65780820380516001836020036101000a031916815260200191505b509250505060405180910390f35b3480156101e057600080fd5b506101e96109d7565b604051808260ff1660ff16815260200191505060405180910390f35b34801561021157600080fd5b5061021a6109ea565b604051808273ffffffffffffffffffffffffffffffffffffffff1673ffffffffffffffffffffffffffffffffffffffff16815260200191505060405180910390f35b34801561026857600080fd5b506102c3600480360381019080803590602001908201803590602001908080601f0160208091040260200160405190810160405280939291908181526020018383808284378201915050505050509192919290505050610a0f565b604051808215151515815260200191505060405180910390f35b3480156102e957600080fd5b506102f2610c59565b6040518080602001828103825283818151815260200191508051906020019080838360005b83811015610332578082015181840152602081019050610317565b50505050905090810190601f16801561035f5780820380516001836020036101000a031916815260200191505b509250505060405180910390f35b60008060001515600560003373ffffffffffffffffffffffffffffffffffffffff1673ffffffffffffffffffffffffffffffffffffffff16815260200190815260200160002060000160009054906101000a900460ff161515148015610426575060001515600760003373ffffffffffffffffffffffffffffffffffffffff1673ffffffffffffffffffffffffffffffffffffffff16815260200190815260200160002060000160009054906101000a900460ff161515145b151561043157600080fd5b600015156009856040518082805190602001908083835b60208310151561046d5780518252602082019150602081019050602083039250610448565b6001836020036101000a038019825116818451168082178552505050505050905001915050908152602001604051809103902060000160009054906101000a900460ff16151514151561054e576040517f08c379a00000000000000000000000000000000000000000000000000000000081526004018080602001828103825260238152602001807f54686520676976656e207465616d20776173206372656174656420616c72656181526020017f64792e000000000000000000000000000000000000000000000000000000000081525060400191505060405180910390fd5b339050836008808054905081548110151561056557fe5b906000526020600020019080519060200190610582929190610cf7565b5060806040519081016040528060011515815260200160006040519080825280602002602001820160405280156105c85781602001602082028038833980820191505090505b50815260200160006040519080825280602002602001820160405280156105fe5781602001602082028038833980820191505090505b50815260200160008152506009856040518082805190602001908083835b602083101515610641578051825260208201915060208101905060208303925061061c565b6001836020036101000a038019825116818451168082178552505050505050905001915050908152602001604051809103902060008201518160000160006101000a81548160ff02191690831515021790555060208201518160010190805190602001906106b0929190610d77565b5060408201518160020190805190602001906106cd929190610d77565b50606082015181600401559050506009846040518082805190602001908083835b60208310151561071357805182526020820191506020810190506020830392506106ee565b6001836020036101000a03801982511681845116808217855250505050505090500191505090815260200160405180910390206001018190806001815401808255809150509060018203906000526020600020016000909192909190916101000a81548173ffffffffffffffffffffffffffffffffffffffff021916908373ffffffffffffffffffffffffffffffffffffffff1602179055505080600680805490508154811015156107c157fe5b9060005260206000200160006101000a81548173ffffffffffffffffffffffffffffffffffffffff021916908373ffffffffffffffffffffffffffffffffffffffff16021790555060a060405190810160405280600115158152602001848152602001600a548152602001858152602001600060405190808252806020026020018201604052801561086757816020015b60608152602001906001900390816108525790505b50815250600760008373ffffffffffffffffffffffffffffffffffffffff1673ffffffffffffffffffffffffffffffffffffffff16815260200190815260200160002060008201518160000160006101000a81548160ff02191690831515021790555060208201518160010190805190602001906108e6929190610e01565b5060408201518160020155606082015181600301908051906020019061090d929190610e01565b50608082015181600401908051906020019061092a929190610e81565b50905050600191505092915050565b60028054600181600116156101000203166002900480601f0160208091040260200160405190810160405280929190818152602001828054600181600116156101000203166002900480156109cf5780601f106109a4576101008083540402835291602001916109cf565b820191906000526020600020905b8154815290600101906020018083116109b257829003601f168201915b505050505081565b600360009054906101000a900460ff1681565b6000809054906101000a900473ffffffffffffffffffffffffffffffffffffffff1681565b6000801515600560003373ffffffffffffffffffffffffffffffffffffffff1673ffffffffffffffffffffffffffffffffffffffff16815260200190815260200160002060000160009054906101000a900460ff161515148015610ac6575060001515600760003373ffffffffffffffffffffffffffffffffffffffff1673ffffffffffffffffffffffffffffffffffffffff16815260200190815260200160002060000160009054906101000a900460ff161515145b1515610ad157600080fd5b3360048080549050815481101515610ae557fe5b9060005260206000200160006101000a81548173ffffffffffffffffffffffffffffffffffffffff021916908373ffffffffffffffffffffffffffffffffffffffff160217905550608060405190810160405280600115158152602001838152602001600a5481526020016000604051908082528060200260200182016040528015610b8557816020015b6060815260200190600190039081610b705790505b50815250600560008060009054906101000a900473ffffffffffffffffffffffffffffffffffffffff1673ffffffffffffffffffffffffffffffffffffffff1673ffffffffffffffffffffffffffffffffffffffff16815260200190815260200160002060008201518160000160006101000a81548160ff0219169083151502179055506020820151816001019080519060200190610c25929190610e01565b50604082015181600201556060820151816003019080519060200190610c4c929190610e81565b5090505060019050919050565b60018054600181600116156101000203166002900480601f016020809104026020016040519081016040528092919081815260200182805460018160011615610100020316600290048015610cef5780601f10610cc457610100808354040283529160200191610cef565b820191906000526020600020905b815481529060010190602001808311610cd257829003601f168201915b505050505081565b828054600181600116156101000203166002900490600052602060002090601f016020900481019282601f10610d3857805160ff1916838001178555610d66565b82800160010185558215610d66579182015b82811115610d65578251825591602001919060010190610d4a565b5b509050610d739190610ee1565b5090565b828054828255906000526020600020908101928215610df0579160200282015b82811115610def5782518260006101000a81548173ffffffffffffffffffffffffffffffffffffffff021916908373ffffffffffffffffffffffffffffffffffffffff16021790555091602001919060010190610d97565b5b509050610dfd9190610f06565b5090565b828054600181600116156101000203166002900490600052602060002090601f016020900481019282601f10610e4257805160ff1916838001178555610e70565b82800160010185558215610e70579182015b82811115610e6f578251825591602001919060010190610e54565b5b509050610e7d9190610ee1565b5090565b828054828255906000526020600020908101928215610ed0579160200282015b82811115610ecf578251829080519060200190610ebf929190610e01565b5091602001919060010190610ea1565b5b509050610edd9190610f49565b5090565b610f0391905b80821115610eff576000816000905550600101610ee7565b5090565b90565b610f4691905b80821115610f4257600081816101000a81549073ffffffffffffffffffffffffffffffffffffffff021916905550600101610f0c565b5090565b90565b610f7291905b80821115610f6e5760008181610f659190610f75565b50600101610f4f565b5090565b90565b50805460018160011615610100020316600290046000825580601f10610f9b5750610fba565b601f016020900490600052602060002090810190610fb99190610ee1565b5b505600a165627a7a72305820a4d60d7cf65459439418e19d79ad03ea5372566155e24c238db7c45a3ccf61cf0029",
  "source": "pragma solidity ^0.4.23;\n\nimport \"./SafeMath.sol\";\n\n// ----------------------------------------------------------------------------\n// ERC Token Standard #20 Interface\n// https://github.com/ethereum/EIPs/blob/master/EIPS/eip-20-token-standard.md\n// ----------------------------------------------------------------------------\ncontract ERC20Interface {\n    /*function totalSupply() public constant returns (uint256);\n    function balanceOf(address tokenOwner) public constant returns (uint256 balance);\n    function allowance(address tokenOwner, address spender) public constant returns (uint256 remaining);\n    function transfer(address to, uint256 tokens) public returns (bool success);\n    function approve(address spender, uint256 tokens) public returns (bool success);\n    function transferFrom(address from, address to, uint256 tokens) public returns (bool success);\n\n    event Transfer(address indexed from, address indexed to, uint256 tokens);\n    event Approval(address indexed tokenOwner, address indexed spender, uint256 tokens);*/\n}\n\n// ----------------------------------------------------------------------------\n// Owned Contract\n// ----------------------------------------------------------------------------\ncontract Owned {\n    address public owner;\n\n    constructor() public {\n        owner = msg.sender;\n    }\n\n    modifier onlyOwner {\n        require(msg.sender == owner);\n        _;\n    }\n}\n\n// ----------------------------------------------------------------------------\n// Pizza Coin Contract\n// ----------------------------------------------------------------------------\ncontract PizzaCoin is ERC20Interface, Owned {\n    using SafeMath for uint256;\n\n    // Token info\n    string public symbol;\n    string public name;\n    uint8 public decimals;\n    //uint256 private _totalSupply;\n\n    struct StaffInfo {\n        bool wasRegistered;    // Check if a specific staff is being registered\n        string name;\n        uint256 tokensBalance; // Amount of tokens left for voting\n        string[] teamsVoted;   // Record all the teams voted by this staff\n        \n        // mapping(team => votes)\n        mapping(string => uint256) votesWeight;  // A collection of teams with voting weight approved by this staff\n    }\n\n    struct TeamPlayerInfo {\n        bool wasRegistered;    // Check if a specific player is being registered\n        string name;\n        uint256 tokensBalance; // Amount of tokens left for voting\n        string teamJoined;     // A team this player associates with\n        string[] teamsVoted;   // Record all the teams voted by this player\n        \n        // mapping(team => votes)\n        mapping(string => uint256) votesWeight;  // A collection of teams with voting weight approved by this player\n    }\n\n    // Team with players\n    struct TeamInfo {\n        bool wasCreated;    // Check if the team was created for uniqueness\n        address[] players;  // A list of team members (the first list member is the team leader who creates the team)\n        address[] voters;   // A list of staff and other teams' members who gave votes to this team\n\n        // mapping(voter => votes)\n        mapping(address => uint256) votesWeight;  // A collection of team voting weights from each voter (i.e., staff + other teams' members)\n        \n        uint256 totalVoted;  // Total voting weight got from voters\n    }\n\n    address[] private staff;                                 // The first staff is the contract owner\n    mapping(address => StaffInfo) private staffInfo;         // mapping(staff => StaffInfo)\n\n    address[] private players;\n    mapping(address => TeamPlayerInfo) private playersInfo;  // mapping(player => TeamPlayerInfo)\n\n    string[] private teams;\n    mapping(string => TeamInfo) private teamsInfo;           // mapping(team => TeamInfo)\n\n    uint256 private voterInitialTokens;\n\n\n    // ------------------------------------------------------------------------\n    // Constructor\n    // ------------------------------------------------------------------------\n    constructor(string _ownerName, uint256 _voterInitialTokens) public {\n        symbol = \"PZC\";\n        name = \"Pizza Coin\";\n        decimals = 0;\n\n        voterInitialTokens = _voterInitialTokens;\n\n        staff[staff.length] = owner;\n        staffInfo[owner] = StaffInfo({\n            wasRegistered: true,\n            name: _ownerName,\n            tokensBalance: _voterInitialTokens,\n            teamsVoted: new string[](0)\n            /*\n                Omit 'votesWeight'\n            */\n        });\n    }\n\n    // ------------------------------------------------------------------------\n    // Don't accept ETH\n    // ------------------------------------------------------------------------\n    function () public payable {\n        revert();\n    }\n\n    modifier notRegistered {\n        require(\n            staffInfo[msg.sender].wasRegistered == false && \n            playersInfo[msg.sender].wasRegistered == false\n        );\n        _;\n    }\n\n    // ------------------------------------------------------------------------\n    // Register staff\n    // ------------------------------------------------------------------------\n    function registerStaff(string _staffName) public notRegistered returns (bool success) {\n        staff[staff.length] = msg.sender;\n        staffInfo[owner] = StaffInfo({\n            wasRegistered: true,\n            name: _staffName,\n            tokensBalance: voterInitialTokens,\n            teamsVoted: new string[](0)\n            /*\n                Omit 'votesWeight'\n            */\n        });\n\n        return true;\n    }\n\n    // ------------------------------------------------------------------------\n    // Team leader creates a team\n    // ------------------------------------------------------------------------\n    function createTeam(string _teamName, string _creatorName) public notRegistered returns (bool success) {\n        require(\n            teamsInfo[_teamName].wasCreated == false,\n            \"The given team was created already.\"\n        );\n\n        address creator = msg.sender;\n\n        // Team\n        teams[teams.length] = _teamName;\n        teamsInfo[_teamName] = TeamInfo({\n            wasCreated: true,\n            players: new address[](0),\n            voters: new address[](0),\n            totalVoted: 0\n            /*\n                Omit 'votesWeight'\n            */\n        });\n\n        teamsInfo[_teamName].players.push(creator);\n\n        // Team player\n        players[players.length] = creator;\n        playersInfo[creator] = TeamPlayerInfo({\n            wasRegistered: true,\n            name: _creatorName,\n            tokensBalance: voterInitialTokens,\n            teamJoined: _teamName,\n            teamsVoted: new string[](0)\n            /*\n                Omit 'votesWeight'\n            */\n        });\n\n        return true;\n    }\n\n\n\n\n\n}",
  "sourcePath": "/Users/macmac/Desktop/Pizza Coin/contracts/PizzaCoin.sol",
  "compiler": {
    "name": "solc",
    "version": "0.4.23+commit.124ca40d.Emscripten.clang"
  },
  "schemaVersion": "2.0.0",
  "updatedAt": "2018-07-23T07:40:05.703Z"
}